{
  "_format": "hh-sol-artifact-1",
  "contractName": "Voting",
  "sourceName": "contracts/Voting.sol",
  "abi": [
    {
      "inputs": [
        {
          "internalType": "string[]",
          "name": "candidateNames",
          "type": "string[]"
        }
      ],
      "stateMutability": "nonpayable",
      "type": "constructor"
    },
    {
      "anonymous": false,
      "inputs": [
        {
          "indexed": true,
          "internalType": "address",
          "name": "voter",
          "type": "address"
        },
        {
          "indexed": false,
          "internalType": "uint256",
          "name": "candidateIndex",
          "type": "uint256"
        }
      ],
      "name": "Voted",
      "type": "event"
    },
    {
      "inputs": [
        {
          "internalType": "uint256",
          "name": "",
          "type": "uint256"
        }
      ],
      "name": "candidates",
      "outputs": [
        {
          "internalType": "string",
          "name": "name",
          "type": "string"
        },
        {
          "internalType": "uint256",
          "name": "voteCount",
          "type": "uint256"
        }
      ],
      "stateMutability": "view",
      "type": "function"
    },
    {
      "inputs": [
        {
          "internalType": "uint256",
          "name": "candidateIndex",
          "type": "uint256"
        }
      ],
      "name": "getCandidateVoteCount",
      "outputs": [
        {
          "internalType": "uint256",
          "name": "",
          "type": "uint256"
        }
      ],
      "stateMutability": "view",
      "type": "function"
    },
    {
      "inputs": [],
      "name": "getCandidates",
      "outputs": [
        {
          "components": [
            {
              "internalType": "string",
              "name": "name",
              "type": "string"
            },
            {
              "internalType": "uint256",
              "name": "voteCount",
              "type": "uint256"
            }
          ],
          "internalType": "struct Voting.Candidate[]",
          "name": "",
          "type": "tuple[]"
        }
      ],
      "stateMutability": "view",
      "type": "function"
    },
    {
      "inputs": [
        {
          "internalType": "uint256",
          "name": "candidateIndex",
          "type": "uint256"
        }
      ],
      "name": "vote",
      "outputs": [],
      "stateMutability": "nonpayable",
      "type": "function"
    },
    {
      "inputs": [
        {
          "internalType": "address",
          "name": "",
          "type": "address"
        }
      ],
      "name": "voters",
      "outputs": [
        {
          "internalType": "bool",
          "name": "",
          "type": "bool"
        }
      ],
      "stateMutability": "view",
      "type": "function"
    }
  ],
  "bytecode": "0x608060405234801561001057600080fd5b5060405161116238038061116283398181016040528101906100329190610330565b60008151905060005b818110156100cd576001604051806040016040528085848151811061006357610062610379565b5b602002602001015181526020016000815250908060018154018082558091505060019003906000526020600020906002020160009091909190915060008201518160000190816100b391906105c9565b50602082015181600101555050808060010191505061003b565b50505061069b565b6000604051905090565b600080fd5b600080fd5b600080fd5b6000601f19601f8301169050919050565b7f4e487b7100000000000000000000000000000000000000000000000000000000600052604160045260246000fd5b610137826100ee565b810181811067ffffffffffffffff82111715610156576101556100ff565b5b80604052505050565b60006101696100d5565b9050610175828261012e565b919050565b600067ffffffffffffffff821115610195576101946100ff565b5b602082029050602081019050919050565b600080fd5b600080fd5b600067ffffffffffffffff8211156101cb576101ca6100ff565b5b6101d4826100ee565b9050602081019050919050565b60005b838110156101ff5780820151818401526020810190506101e4565b60008484015250505050565b600061021e610219846101b0565b61015f565b90508281526020810184848401111561023a576102396101ab565b5b6102458482856101e1565b509392505050565b600082601f830112610262576102616100e9565b5b815161027284826020860161020b565b91505092915050565b600061028e6102898461017a565b61015f565b905080838252602082019050602084028301858111156102b1576102b06101a6565b5b835b818110156102f857805167ffffffffffffffff8111156102d6576102d56100e9565b5b8086016102e3898261024d565b855260208501945050506020810190506102b3565b5050509392505050565b600082601f830112610317576103166100e9565b5b815161032784826020860161027b565b91505092915050565b600060208284031215610346576103456100df565b5b600082015167ffffffffffffffff811115610364576103636100e4565b5b61037084828501610302565b91505092915050565b7f4e487b7100000000000000000000000000000000000000000000000000000000600052603260045260246000fd5b600081519050919050565b7f4e487b7100000000000000000000000000000000000000000000000000000000600052602260045260246000fd5b600060028204905060018216806103fa57607f821691505b60208210810361040d5761040c6103b3565b5b50919050565b60008190508160005260206000209050919050565b60006020601f8301049050919050565b600082821b905092915050565b6000600883026104757fffffffffffffffffffffffffffffffffffffffffffffffffffffffffffffffff82610438565b61047f8683610438565b95508019841693508086168417925050509392505050565b6000819050919050565b6000819050919050565b60006104c66104c16104bc84610497565b6104a1565b610497565b9050919050565b6000819050919050565b6104e0836104ab565b6104f46104ec826104cd565b848454610445565b825550505050565b600090565b6105096104fc565b6105148184846104d7565b505050565b5b818110156105385761052d600082610501565b60018101905061051a565b5050565b601f82111561057d5761054e81610413565b61055784610428565b81016020851015610566578190505b61057a61057285610428565b830182610519565b50505b505050565b600082821c905092915050565b60006105a060001984600802610582565b1980831691505092915050565b60006105b9838361058f565b9150826002028217905092915050565b6105d2826103a8565b67ffffffffffffffff8111156105eb576105ea6100ff565b5b6105f582546103e2565b61060082828561053c565b600060209050601f8311600181146106335760008415610621578287015190505b61062b85826105ad565b865550610693565b601f19841661064186610413565b60005b8281101561066957848901518255600182019150602085019450602081019050610644565b868310156106865784890151610682601f89168261058f565b8355505b6001600288020188555050505b505050505050565b610ab8806106aa6000396000f3fe608060405234801561001057600080fd5b50600436106100575760003560e01c80630121b93f1461005c57806306a49fce146100785780633477ee2e14610096578063a3ec138d146100c7578063b315c597146100f7575b600080fd5b61007660048036038101906100719190610566565b610127565b005b6100806102de565b60405161008d9190610731565b60405180910390f35b6100b060048036038101906100ab9190610566565b6103d9565b6040516100be9291906107ac565b60405180910390f35b6100e160048036038101906100dc919061083a565b610495565b6040516100ee9190610882565b60405180910390f35b610111600480360381019061010c9190610566565b6104b5565b60405161011e919061089d565b60405180910390f35b6000803373ffffffffffffffffffffffffffffffffffffffff1673ffffffffffffffffffffffffffffffffffffffff16815260200190815260200160002060009054906101000a900460ff16156101b3576040517f08c379a00000000000000000000000000000000000000000000000000000000081526004016101aa90610904565b60405180910390fd5b60018054905081106101fa576040517f08c379a00000000000000000000000000000000000000000000000000000000081526004016101f190610970565b60405180910390fd5b60016000803373ffffffffffffffffffffffffffffffffffffffff1673ffffffffffffffffffffffffffffffffffffffff16815260200190815260200160002060006101000a81548160ff021916908315150217905550600180828154811061026657610265610990565b5b9060005260206000209060020201600101600082825461028691906109ee565b925050819055503373ffffffffffffffffffffffffffffffffffffffff167f4d99b957a2bc29a30ebd96a7be8e68fe50a3c701db28a91436490b7d53870ca4826040516102d3919061089d565b60405180910390a250565b60606001805480602002602001604051908101604052809291908181526020016000905b828210156103d0578382906000526020600020906002020160405180604001604052908160008201805461033590610a51565b80601f016020809104026020016040519081016040528092919081815260200182805461036190610a51565b80156103ae5780601f10610383576101008083540402835291602001916103ae565b820191906000526020600020905b81548152906001019060200180831161039157829003601f168201915b5050505050815260200160018201548152505081526020019060010190610302565b50505050905090565b600181815481106103e957600080fd5b906000526020600020906002020160009150905080600001805461040c90610a51565b80601f016020809104026020016040519081016040528092919081815260200182805461043890610a51565b80156104855780601f1061045a57610100808354040283529160200191610485565b820191906000526020600020905b81548152906001019060200180831161046857829003601f168201915b5050505050908060010154905082565b60006020528060005260406000206000915054906101000a900460ff1681565b600060018054905082106104fe576040517f08c379a00000000000000000000000000000000000000000000000000000000081526004016104f590610970565b60405180910390fd5b6001828154811061051257610511610990565b5b9060005260206000209060020201600101549050919050565b600080fd5b6000819050919050565b61054381610530565b811461054e57600080fd5b50565b6000813590506105608161053a565b92915050565b60006020828403121561057c5761057b61052b565b5b600061058a84828501610551565b91505092915050565b600081519050919050565b600082825260208201905092915050565b6000819050602082019050919050565b600081519050919050565b600082825260208201905092915050565b60005b838110156105f95780820151818401526020810190506105de565b60008484015250505050565b6000601f19601f8301169050919050565b6000610621826105bf565b61062b81856105ca565b935061063b8185602086016105db565b61064481610605565b840191505092915050565b61065881610530565b82525050565b6000604083016000830151848203600086015261067b8282610616565b9150506020830151610690602086018261064f565b508091505092915050565b60006106a7838361065e565b905092915050565b6000602082019050919050565b60006106c782610593565b6106d1818561059e565b9350836020820285016106e3856105af565b8060005b8581101561071f5784840389528151610700858261069b565b945061070b836106af565b925060208a019950506001810190506106e7565b50829750879550505050505092915050565b6000602082019050818103600083015261074b81846106bc565b905092915050565b600082825260208201905092915050565b600061076f826105bf565b6107798185610753565b93506107898185602086016105db565b61079281610605565b840191505092915050565b6107a681610530565b82525050565b600060408201905081810360008301526107c68185610764565b90506107d5602083018461079d565b9392505050565b600073ffffffffffffffffffffffffffffffffffffffff82169050919050565b6000610807826107dc565b9050919050565b610817816107fc565b811461082257600080fd5b50565b6000813590506108348161080e565b92915050565b6000602082840312156108505761084f61052b565b5b600061085e84828501610825565b91505092915050565b60008115159050919050565b61087c81610867565b82525050565b60006020820190506108976000830184610873565b92915050565b60006020820190506108b2600083018461079d565b92915050565b7f596f75206861766520616c726561647920766f74656421000000000000000000600082015250565b60006108ee601783610753565b91506108f9826108b8565b602082019050919050565b6000602082019050818103600083015261091d816108e1565b9050919050565b7f496e76616c69642063616e646964617465210000000000000000000000000000600082015250565b600061095a601283610753565b915061096582610924565b602082019050919050565b600060208201905081810360008301526109898161094d565b9050919050565b7f4e487b7100000000000000000000000000000000000000000000000000000000600052603260045260246000fd5b7f4e487b7100000000000000000000000000000000000000000000000000000000600052601160045260246000fd5b60006109f982610530565b9150610a0483610530565b9250828201905080821115610a1c57610a1b6109bf565b5b92915050565b7f4e487b7100000000000000000000000000000000000000000000000000000000600052602260045260246000fd5b60006002820490506001821680610a6957607f821691505b602082108103610a7c57610a7b610a22565b5b5091905056fea26469706673582212206dcb3984474c6a6fddaabceb177c1b9d0f45ff62556b36cb11b3579fd1635f6964736f6c634300081c0033",
  "linkReferences": {},
  "deployedLinkReferences": {}
}