{
  "_format": "hh-sol-artifact-1",
  "contractName": "Voting",
  "sourceName": "contracts/Voting.sol",
  "abi": [
    {
      "inputs": [
        {
          "internalType": "string[]",
          "name": "candidateNames",
          "type": "string[]"
        }
      ],
      "stateMutability": "nonpayable",
      "type": "constructor"
    },
    {
      "anonymous": false,
      "inputs": [
        {
          "indexed": true,
          "internalType": "address",
          "name": "voter",
          "type": "address"
        },
        {
          "indexed": false,
          "internalType": "uint256",
          "name": "candidateIndex",
          "type": "uint256"
        }
      ],
      "name": "Voted",
      "type": "event"
    },
    {
      "inputs": [
        {
          "internalType": "uint256",
          "name": "",
          "type": "uint256"
        }
      ],
      "name": "candidates",
      "outputs": [
        {
          "internalType": "string",
          "name": "name",
          "type": "string"
        },
        {
          "internalType": "uint256",
          "name": "voteCount",
          "type": "uint256"
        }
      ],
      "stateMutability": "view",
      "type": "function"
    },
    {
      "inputs": [],
      "name": "getCandidates",
      "outputs": [
        {
          "components": [
            {
              "internalType": "string",
              "name": "name",
              "type": "string"
            },
            {
              "internalType": "uint256",
              "name": "voteCount",
              "type": "uint256"
            }
          ],
          "internalType": "struct Voting.Candidate[]",
          "name": "",
          "type": "tuple[]"
        }
      ],
      "stateMutability": "view",
      "type": "function"
    },
    {
      "inputs": [
        {
          "internalType": "uint256",
          "name": "candidateIndex",
          "type": "uint256"
        }
      ],
      "name": "vote",
      "outputs": [],
      "stateMutability": "nonpayable",
      "type": "function"
    },
    {
      "inputs": [
        {
          "internalType": "address",
          "name": "",
          "type": "address"
        }
      ],
      "name": "voters",
      "outputs": [
        {
          "internalType": "bool",
          "name": "",
          "type": "bool"
        }
      ],
      "stateMutability": "view",
      "type": "function"
    }
  ],
  "bytecode": "0x608060405234801561001057600080fd5b506040516110ab3803806110ab8339818101604052810190610032919061032a565b60005b81518110156100c8576001604051806040016040528084848151811061005e5761005d610373565b5b602002602001015181526020016000815250908060018154018082558091505060019003906000526020600020906002020160009091909190915060008201518160000190816100ae91906105c3565b506020820151816001015550508080600101915050610035565b5050610695565b6000604051905090565b600080fd5b600080fd5b600080fd5b6000601f19601f8301169050919050565b7f4e487b7100000000000000000000000000000000000000000000000000000000600052604160045260246000fd5b610131826100e8565b810181811067ffffffffffffffff821117156101505761014f6100f9565b5b80604052505050565b60006101636100cf565b905061016f8282610128565b919050565b600067ffffffffffffffff82111561018f5761018e6100f9565b5b602082029050602081019050919050565b600080fd5b600080fd5b600067ffffffffffffffff8211156101c5576101c46100f9565b5b6101ce826100e8565b9050602081019050919050565b60005b838110156101f95780820151818401526020810190506101de565b60008484015250505050565b6000610218610213846101aa565b610159565b905082815260208101848484011115610234576102336101a5565b5b61023f8482856101db565b509392505050565b600082601f83011261025c5761025b6100e3565b5b815161026c848260208601610205565b91505092915050565b600061028861028384610174565b610159565b905080838252602082019050602084028301858111156102ab576102aa6101a0565b5b835b818110156102f257805167ffffffffffffffff8111156102d0576102cf6100e3565b5b8086016102dd8982610247565b855260208501945050506020810190506102ad565b5050509392505050565b600082601f830112610311576103106100e3565b5b8151610321848260208601610275565b91505092915050565b6000602082840312156103405761033f6100d9565b5b600082015167ffffffffffffffff81111561035e5761035d6100de565b5b61036a848285016102fc565b91505092915050565b7f4e487b7100000000000000000000000000000000000000000000000000000000600052603260045260246000fd5b600081519050919050565b7f4e487b7100000000000000000000000000000000000000000000000000000000600052602260045260246000fd5b600060028204905060018216806103f457607f821691505b602082108103610407576104066103ad565b5b50919050565b60008190508160005260206000209050919050565b60006020601f8301049050919050565b600082821b905092915050565b60006008830261046f7fffffffffffffffffffffffffffffffffffffffffffffffffffffffffffffffff82610432565b6104798683610432565b95508019841693508086168417925050509392505050565b6000819050919050565b6000819050919050565b60006104c06104bb6104b684610491565b61049b565b610491565b9050919050565b6000819050919050565b6104da836104a5565b6104ee6104e6826104c7565b84845461043f565b825550505050565b600090565b6105036104f6565b61050e8184846104d1565b505050565b5b81811015610532576105276000826104fb565b600181019050610514565b5050565b601f821115610577576105488161040d565b61055184610422565b81016020851015610560578190505b61057461056c85610422565b830182610513565b50505b505050565b600082821c905092915050565b600061059a6000198460080261057c565b1980831691505092915050565b60006105b38383610589565b9150826002028217905092915050565b6105cc826103a2565b67ffffffffffffffff8111156105e5576105e46100f9565b5b6105ef82546103dc565b6105fa828285610536565b600060209050601f83116001811461062d576000841561061b578287015190505b61062585826105a7565b86555061068d565b601f19841661063b8661040d565b60005b828110156106635784890151825560018201915060208501945060208101905061063e565b86831015610680578489015161067c601f891682610589565b8355505b6001600288020188555050505b505050505050565b610a07806106a46000396000f3fe608060405234801561001057600080fd5b506004361061004c5760003560e01c80630121b93f1461005157806306a49fce1461006d5780633477ee2e1461008b578063a3ec138d146100bc575b600080fd5b61006b600480360381019061006691906104b5565b6100ec565b005b6100756102a3565b6040516100829190610680565b60405180910390f35b6100a560048036038101906100a091906104b5565b61039e565b6040516100b39291906106fb565b60405180910390f35b6100d660048036038101906100d19190610789565b61045a565b6040516100e391906107d1565b60405180910390f35b6000803373ffffffffffffffffffffffffffffffffffffffff1673ffffffffffffffffffffffffffffffffffffffff16815260200190815260200160002060009054906101000a900460ff1615610178576040517f08c379a000000000000000000000000000000000000000000000000000000000815260040161016f90610838565b60405180910390fd5b60018054905081106101bf576040517f08c379a00000000000000000000000000000000000000000000000000000000081526004016101b6906108a4565b60405180910390fd5b60016000803373ffffffffffffffffffffffffffffffffffffffff1673ffffffffffffffffffffffffffffffffffffffff16815260200190815260200160002060006101000a81548160ff021916908315150217905550600180828154811061022b5761022a6108c4565b5b9060005260206000209060020201600101600082825461024b9190610922565b925050819055503373ffffffffffffffffffffffffffffffffffffffff167f4d99b957a2bc29a30ebd96a7be8e68fe50a3c701db28a91436490b7d53870ca4826040516102989190610956565b60405180910390a250565b60606001805480602002602001604051908101604052809291908181526020016000905b8282101561039557838290600052602060002090600202016040518060400160405290816000820180546102fa906109a0565b80601f0160208091040260200160405190810160405280929190818152602001828054610326906109a0565b80156103735780601f1061034857610100808354040283529160200191610373565b820191906000526020600020905b81548152906001019060200180831161035657829003601f168201915b50505050508152602001600182015481525050815260200190600101906102c7565b50505050905090565b600181815481106103ae57600080fd5b90600052602060002090600202016000915090508060000180546103d1906109a0565b80601f01602080910402602001604051908101604052809291908181526020018280546103fd906109a0565b801561044a5780601f1061041f5761010080835404028352916020019161044a565b820191906000526020600020905b81548152906001019060200180831161042d57829003601f168201915b5050505050908060010154905082565b60006020528060005260406000206000915054906101000a900460ff1681565b600080fd5b6000819050919050565b6104928161047f565b811461049d57600080fd5b50565b6000813590506104af81610489565b92915050565b6000602082840312156104cb576104ca61047a565b5b60006104d9848285016104a0565b91505092915050565b600081519050919050565b600082825260208201905092915050565b6000819050602082019050919050565b600081519050919050565b600082825260208201905092915050565b60005b8381101561054857808201518184015260208101905061052d565b60008484015250505050565b6000601f19601f8301169050919050565b60006105708261050e565b61057a8185610519565b935061058a81856020860161052a565b61059381610554565b840191505092915050565b6105a78161047f565b82525050565b600060408301600083015184820360008601526105ca8282610565565b91505060208301516105df602086018261059e565b508091505092915050565b60006105f683836105ad565b905092915050565b6000602082019050919050565b6000610616826104e2565b61062081856104ed565b935083602082028501610632856104fe565b8060005b8581101561066e578484038952815161064f85826105ea565b945061065a836105fe565b925060208a01995050600181019050610636565b50829750879550505050505092915050565b6000602082019050818103600083015261069a818461060b565b905092915050565b600082825260208201905092915050565b60006106be8261050e565b6106c881856106a2565b93506106d881856020860161052a565b6106e181610554565b840191505092915050565b6106f58161047f565b82525050565b6000604082019050818103600083015261071581856106b3565b905061072460208301846106ec565b9392505050565b600073ffffffffffffffffffffffffffffffffffffffff82169050919050565b60006107568261072b565b9050919050565b6107668161074b565b811461077157600080fd5b50565b6000813590506107838161075d565b92915050565b60006020828403121561079f5761079e61047a565b5b60006107ad84828501610774565b91505092915050565b60008115159050919050565b6107cb816107b6565b82525050565b60006020820190506107e660008301846107c2565b92915050565b7f596f75206861766520616c726561647920766f74656421000000000000000000600082015250565b60006108226017836106a2565b915061082d826107ec565b602082019050919050565b6000602082019050818103600083015261085181610815565b9050919050565b7f496e76616c69642063616e646964617465210000000000000000000000000000600082015250565b600061088e6012836106a2565b915061089982610858565b602082019050919050565b600060208201905081810360008301526108bd81610881565b9050919050565b7f4e487b7100000000000000000000000000000000000000000000000000000000600052603260045260246000fd5b7f4e487b7100000000000000000000000000000000000000000000000000000000600052601160045260246000fd5b600061092d8261047f565b91506109388361047f565b92508282019050808211156109505761094f6108f3565b5b92915050565b600060208201905061096b60008301846106ec565b92915050565b7f4e487b7100000000000000000000000000000000000000000000000000000000600052602260045260246000fd5b600060028204905060018216806109b857607f821691505b6020821081036109cb576109ca610971565b5b5091905056fea264697066735822122071861aafc2624df30b4a10d6efb0e5b3518486a62992a79e44c204fabc635ed664736f6c634300081c0033",
  "linkReferences": {},
  "deployedLinkReferences": {}
}